:100000000C9466000C948E000C948E000C948E0060
:100010000C948E000C948E000C948E000C948E0028
:100020000C948E000C948E000C948E000C948E0018
:100030000C948E000C948E000C948E000C948E0008
:100040000C942B050C948E000C94F9040C94D3049E
:100050000C948E000C948E000C948E000C948E00E8
:100060000C948E000C948E00000000080002010029
:100070000003040700000000000000000000000072
:10008000250028002B0000000000240027002A0083
:10009000040404040404040402020202020203032E
:1000A0000303030301020408102040800102040836
:1000B00010200102040810201112131415160A0B47
:1000C0000C0D0E0F000102030405750511241FBE5F
:1000D000CFEFD8E0DEBFCDBF22E0A6E7B1E001C0A0
:1000E0001D92AB33B207E1F711E0A0E0B1E0ECE81C
:1000F000F0E102C005900D92A637B107D9F710E0E4
:10010000C6E6D0E004C02197FE010E943508C5363E
:10011000D107C9F70E94BB050C9444080C94000059
:1001200090E0FC01EC55FF4F249180579F4FFC015C
:100130008491882399F090E0880F991FFC01EA5779
:10014000FF4FA591B491FC01E458FF4F8591949124
:100150008FB7F894EC91E22BEC938FBF0895AF9298
:10016000BF92CF92DF92EF92FF920F931F93CF93A4
:10017000DF936C017B018B01040F151FEB015E0106
:10018000AE18BF08C017D10759F06991D601ED919B
:10019000FC910190F081E02DC6010995892B79F73A
:1001A000C501DF91CF911F910F91FF90EF90DF90EC
:1001B000CF90BF90AF900895FC01538D448D252FB3
:1001C00030E0842F90E0821B930B541710F0CF96F1
:1001D000089501970895FC01918D828D981761F023
:1001E000A28DAE0FBF2FB11D5D968C91928D9F5F3A
:1001F0009F73928F90E008958FEF9FEF0895FC0119
:10020000918D828D981731F0828DE80FF11D858DCB
:1002100090E008958FEF9FEF0895FC01918D228D5E
:10022000892F90E0805C9F4F821B91098F739927E3
:10023000089586E891E00E940D0121E0892B09F4E0
:1002400020E0822F089580E090E0892B29F00E9421
:10025000190181110C9400000895FC01A48DA80FD0
:10026000B92FB11DA35ABF4F2C91848D90E00196F8
:100270008F739927848FA689B7892C93A089B18918
:100280008C91837080648C93938D848D981306C0B9
:100290000288F389E02D80818F7D80830895EF921D
:1002A000FF920F931F93CF93DF93EC0181E0888F30
:1002B0009B8D8C8D98131AC0E889F989808185FF00
:1002C00015C09FB7F894EE89FF896083E889F989A2
:1002D00080818370806480839FBF81E090E0DF91A4
:1002E000CF911F910F91FF90EF900895F62E0B8DF7
:1002F00010E00F5F1F4F0F731127E02E8C8D8E11B2
:100300000CC00FB607FCFACFE889F989808185FF18
:10031000F5CFCE010E942D01F1CFEB8DEC0FFD2F1B
:10032000F11DE35AFF4FF0829FB7F8940B8FEA89D3
:10033000FB8980818062CFCFCF93DF93EC01888DE2
:100340008823B9F0AA89BB89E889F9898C9185FD50
:1003500003C0808186FD0DC00FB607FCF7CF8C91DE
:1003600085FFF2CF808185FFEDCFCE010E942D0168
:10037000E9CFDF91CF91089590E0FC01E859FF4F5C
:100380002491FC01EC55FF4F3491FC01E057FF4FE5
:10039000E491EE23C9F0222339F0233001F1A8F4CF
:1003A000213019F1223029F1F0E0EE0FFF1FE4585F
:1003B000FF4FA591B4918FB7F894EC91611126C0CD
:1003C00030953E233C938FBF08952730A9F0283005
:1003D000C9F0243049F7809180008F7D03C080915F
:1003E00080008F7780938000DFCF84B58F7784BDC6
:1003F000DBCF84B58F7DFBCF8091B0008F7780936A
:10040000B000D2CF8091B0008F7DF9CF3E2BDACFF4
:10041000209123023091240240912502509126021E
:100420002417350721F0682F822F0C94BC01089502
:100430008230910538F0880F991F880F991F059712
:100440000197F1F70895CF93DF939CB59F7D9CBDF5
:100450009CB5937F9CBD9CB59C7F9CBD9DB59160D8
:100460009DBDC3E2D2E0682F8A810E94BC018C89C5
:100470009D89DF91CF910C94180281E00C942302A6
:1004800080E00C9423023FB7F8948091770190911B
:100490007801A0917901B0917A0126B5A89B05C099
:1004A0002F3F19F00196A11DB11D3FBFBA2FA92FF3
:1004B000982F8827BC01CD01620F711D811D911DF0
:1004C00042E0660F771F881F991F4A95D1F708955C
:1004D0008F929F92AF92BF92CF92DF92EF92FF9254
:1004E0000E9443024B015C0185E0C82ED12CE12C17
:1004F000F12C0E944302681979098A099B09683E18
:10050000734081059105A8F321E0C21AD108E108E2
:10051000F10888EE880E83E0981EA11CB11CC1145E
:10052000D104E104F10429F7FF90EF90DF90CF9020
:10053000BF90AF909F908F9008958EBD00000DB436
:1005400007FEFDCF8EB50895CF93DF93C82FD62F2A
:100550000E9440028C2F8F7180620E949D02C82FE2
:100560008D2F0E949D020E943D028C2FDF91CF9122
:100570000895CF930E94400281EE0E949D02C82FF1
:100580000E943D028C2FCF910895CF92DF92EF927F
:10059000FF920F931F93CF93DF93C0912A02DC2F1A
:1005A000C43008F0D3E080912B02CD1B8111C0E054
:1005B0000E94400280EA0E949D0203E811E0D150AF
:1005C00030F0F80181918F010E949D02F8CFC15057
:1005D00020F080E00E949D02FACF0E943D0281E05F
:1005E0000E9408028FB7F894C0907F01D0908001DC
:1005F000E0908101F09082018FBF0E9440028FEF56
:100600000E949D02C82F0E943D02C07309F52FB7BA
:10061000F89480917F0190918001A0918101B09127
:1006200082012FBF8C199D09AE09BF098036910543
:10063000A105B10510F381E08093320280E0DF91E3
:10064000CF911F910F91FF90EF90DF90CF90089581
:1006500080E00E94080260E787E00E94A40284FF15
:1006600003C00E94B902EACF81E0E9CFCF93C82F3F
:100670000E9440028C2F0E949D028FEF0E949D02DB
:10068000C82F0E943D028C2FCF91089580E00E94D8
:10069000080280913302909134020E9418028DE189
:1006A0000E94360381FF08C080913302909134028A
:1006B0000E9418020E94B90280E00E943603682F4F
:1006C0006E7F80E00E94A40282E00E943603E4EC88
:1006D000F0E0E49161E070E001C0660FEA95EAF7AE
:1006E000682B82E00C94A40280E00E94360381FD16
:1006F00007C0682F626080E00E94A4020C94680228
:100700000895EF92FF920F931F93CF93DF93C82F1B
:100710007B01142F0E9440028C2F8F7180620E94F7
:100720009D02082FE701115020F089910E949D023F
:10073000FACF0E943D02802FDF91CF911F910F9140
:10074000FF90EF900895CF93DF93C82FD0E0FE0184
:10075000E254FF4F823000F58491409131020E94B3
:100760008103FE01E854FF4F849160912A020E94A8
:10077000A40282E00E943603FE01EC53FF4FE49195
:1007800061E070E001C0660FEA95EAF7682B82E04D
:10079000DF91CF910C94A402849141E0E0CF0E94BC
:1007A000740380E00E943603682F616080E00E943D
:1007B000A40260E787E00E94A40281E00E94080290
:1007C00080912C02882371F0409131026CE272E03A
:1007D0008AE00E9481038DE10E94360381FF15C0EB
:1007E0000C94B90282E00E943603E4ECF0E0E4915C
:1007F00021E030E001C0220FEA95EAF72095622F50
:10080000682382E00E94A402E6CF0895FF920F932E
:100810001F93CF93DF93C0912A02DC2FC33008F0DF
:10082000D3E080912B02CD1B8111C0E00E944002D9
:1008300081E60E949D02F82E03E811E0D15038F0C5
:100840008FEF0E949D02F80181938F01F7CFC15075
:1008500020F08FEF0E949D02FACF0E943D028F2D63
:10086000DF91CF911F910F91FF900895FC010190AE
:100870000020E9F73197AF01481B590BBC0186E80E
:1008800091E00C94AF008F929F92AF92BF920F9322
:100890001F93CF93DF93CDB7DEB7A1970FB6F89430
:1008A000DEBF0FBECDBF19A2423008F44AE08E0170
:1008B0000F5D1F4F842E912CB12CA12CA50194010A
:1008C0000E941308E62FB901CA01EA30F4F4E05D92
:1008D000D801EE938D01232B242B252B79F790E063
:1008E00080E0109719F0CD010E943604A1960FB652
:1008F000F894DEBF0FBECDBFDF91CF911F910F9156
:10090000BF90AF909F908F900895E95CE1CFCF9218
:10091000DF92EF92FF92CF93DF936B017C016DE248
:1009200086E891E00E944F01EC0166277727CB0112
:100930006C197D098E099F094AE00E9443048C0FBF
:100940009D1FDF91CF91FF90EF90DF90CF900895A2
:10095000CF93DF93682F70E090E080E04AE00E9440
:100960004304EC018AE291E00E9436048C0F9D1F43
:10097000DF91CF910895CF93DF93BC01990F880B3E
:10098000990B97FF0CC00E948704EC018AE291E06A
:100990000E9436048C0F9D1FDF91CF9108954AE08D
:1009A0000E944304F2CF1F920F920FB60F921124B0
:1009B0002F933F934F935F936F937F938F939F9367
:1009C000AF93BF93EF93FF9386E891E00E942D01D0
:1009D000FF91EF91BF91AF919F918F917F916F9117
:1009E0005F914F913F912F910F900FBE0F901F90ED
:1009F00018951F920F920FB60F9211242F938F9379
:100A00009F93EF93FF93E0919601F091970180817E
:100A1000E0919C01F0919D0182FD1BC0908180912D
:100A20009F018F5F8F732091A001821741F0E091A9
:100A30009F01F0E0EA57FE4F958F80939F01FF9151
:100A4000EF919F918F912F910F900FBE0F901F905C
:100A500018958081F4CF1F920F920FB60F92112438
:100A60002F933F938F939F93AF93BF9380917F0179
:100A700090918001A0918101B09182013091760125
:100A800023E0230F2D3758F50196A11DB11D2093AA
:100A9000760180937F0190938001A0938101B093B0
:100AA00082018091770190917801A0917901B091B4
:100AB0007A010196A11DB11D809377019093780171
:100AC000A0937901B0937A01BF91AF919F918F91DB
:100AD0003F912F910F900FBE0F901F90189526E811
:100AE000230F0296A11DB11DD2CFE6E8F1E01382DB
:100AF000128288EE93E0A0E0B0E084839583A68321
:100B0000B7838CE191E09183808385EC90E09587B9
:100B1000848784EC90E09787868780EC90E0918BC7
:100B2000808B81EC90E0938B828B82EC90E0958BB4
:100B3000848B86EC90E0978B868B118E128E138EB1
:100B4000148EE3E2F2E087E090E0918380838AE014
:100B500090E093838283168280E28783108685E00B
:100B6000868785E090E0A0E0B0E0848B958BA68B33
:100B7000B78B11860895789484B5826084BD84B55E
:100B8000816084BD85B5826085BD85B5816085BD88
:100B900080916E00816080936E0010928100809140
:100BA00081008260809381008091810081608093C8
:100BB0008100809180008160809380008091B100ED
:100BC00084608093B1008091B00081608093B00018
:100BD00080917A00846080937A0080917A008260AC
:100BE00080937A0080917A00816080937A0080916E
:100BF0007A00806880937A001092C100E09196019B
:100C0000F091970182E08083E0919201F09193014D
:100C10001082E0919401F091950180E1808310921F
:100C20009E01E0919A01F0919B0186E08083E09122
:100C30009801F0919901808180618083E091980111
:100C4000F0919901808188608083E0919801F09112
:100C50009901808180688083E0919801F0919901E9
:100C600080818F7D80838091230290912402209146
:100C70002502309126028217930711F00E949000FE
:100C80008091250290912602209123023091240226
:100C90002817390711F00E949000CFB7F89480917F
:100CA0007B01811124C0EAE9F0E08491EEEAF0E0F2
:100CB0009491E82FF0E0EE0FFF1FEA57FF4FA59148
:100CC000B491EC91E92321F461E08AE00E94BC0137
:100CD0008AE00E9490008CB580618CBD8CB58064E8
:100CE0008CBD8DE00E9490008BE00E94900080916E
:100CF0007B018F5F80937B01CFBF80E00E94080261
:100D000081E00E9423020E9468026CE080E00E9461
:100D1000A4026FE584E00E94A40286E00E943603EC
:100D2000877DC82FC0628BE990E0A0E0B0E080939F
:100D3000330290933402A0933502B09336026C2FA5
:100D400086E00E94A40286E00E943603C81303C016
:100D500081E08093290286E00E94360386E00E94AB
:100D6000360345E550E060E070E040933302509375
:100D700034026093350270933602682F677D86E0F7
:100D80000E94A40286E00E9436030E94400280E591
:100D90000E949D0283E70E949D020E943D0260E046
:100DA0008DE10E94A40260E08CE10E94A4021092F6
:100DB0002B0260E787E00E94A4026CE485E00E94B9
:100DC000A4020E94400282EE0E949D020E943D0207
:100DD0000E94B9020E94740380E00E943603682FCB
:100DE0006E7F80E00E94A4024091310260E071E0D9
:100DF0008AE00E9481034091310260E071E080E16D
:100E00000E94810360912A0281E10E94A4020E9453
:100E1000460385E797E2909384018093830181E004
:100E2000809385011AE0C0E00E94C502082F8DE280
:100E300091E00E943604802F90E00E94BB0489E379
:100E400091E00E9436048C2F0E94A8040111CF5F0C
:100E5000C33010F4115041F71092850162E171E046
:100E600081E00E94A3030E94CF03C1E080917E0134
:100E7000882341F080917D01882321F080917C01BD
:100E800081112BC087E10E94360380FD06C00E94BD
:100E9000060460E787E00E94A40280918501823009
:100EA00099F08330B9F0813031F480937E016CE0A9
:100EB00071E00E94A3038AE491E00E9436048091CD
:100EC00085010E94A804D2CFC0937D0166E071E045
:100ED00081E0EFCFC0937C01EECF8DE591E00E94E1
:100EE000360480917E0190E00E94BB0485E691E08B
:100EF0000E94360480917D0190E00E94BB048DE643
:100F000091E00E94360480917C0190E00E94BB0435
:100F10000E94460384E6809385010E94C5028823CF
:100F200029F0809185010E94A804F7CF10927C01DE
:100F30000E94CF03109285010E94680200E010E039
:100F400062E171E081E00E94A303C0E0809185012D
:100F500081111EC00E94060460E787E00E94A4027F
:100F6000C63011F0C11110C04091310250E062E171
:100F700071E08CE292E00E943B08C0E062E171E027
:100F80008C2F0E94A30302C0C730C0F3CF5FDECF17
:100F9000823079F18330E9F18130B9F480937E01B8
:100FA0006091830170918401072E000C880B990BCE
:100FB00097FF1BC00E94870483E691E00E943604DD
:100FC0006CE071E081E00E94A303809185010E94A2
:100FD000A8040115110509F4B3CF0E941901882353
:100FE00009F4AECF0E940000ABCF4AE00E94430458
:100FF000E3CF81E080937D01809183019091840112
:101000000E94BB0483E691E00E94360466E071E032
:10101000D9CF81E080937C018091830190918401FC
:101020000E94BB04D2CFA1E21A2EAA1BBB1BFD015A
:101030000DC0AA1FBB1FEE1FFF1FA217B307E407B7
:10104000F50720F0A21BB30BE40BF50B661F771F0F
:10105000881F991F1A9469F76095709580959095EF
:101060009B01AC01BD01CF010895EE0FFF1F05905C
:10107000F491E02D0994FB01DC0102C001900D9276
:0C10800041505040D8F70895F894FFCF7D
:10108C0030303030300030303030330030303030B1
:10109C003200303030303100000000004F01AF0022
:1010AC00DC009C010D01EB00FF000D0A0044617493
:1010BC00612073656E743A20006461746153656ECF
:1010CC00745F636F756E743A200052656369657660
:1010DC00656420416464726573733A20006E6F64BA
:1010EC0065313A20006E6F6465323A20006E6F6491
:0610FC0065333A200000FC
:00000001FF
